:030000000206C134
:0C06C100787FE4F6D8FD75812002055713
:1006AD00C0F9A4B0999282F8809040792430191243
:0406BD0002780010AF
:1003A4008F1E8C1F8D20E51EC394644005751E644A
:1003B400800AE51EC394005003E4F51EAC1EE4124B
:1003C40001BE7BBC7A747913784112000E1201F2DB
:1003D400AC1FAD20120273E4C39FFFE49EFE7401C0
:1003E4009400FDE49400FCE4FB7A01F9F812060E93
:1003F4008E1C8F1DAC1EE41201BE7BBC7A74791373
:10040400784112000E1201F2AC1FAD20120273E407
:10041400C39FFFE49EFE74019400FDE49400FCE499
:10042400FB7A01F9F812060EAE02AF038E0A8F0BA7
:10043400C37464951EFDE49400FCE41201B97BBC12
:100444007A747913784112000E1201F2AC1FAD20B8
:10045400120273E4C39FFFE49EFE74019400FDE462
:100464009400FCE4FB7A01F9F812060E8E088F0959
:10047400C37464951EFDE49400FCE41201B97BBCD2
:100484007A747913784112000E1201F2AC1FAD2078
:10049400120273E4C39FFFE49EFE74019400FDE422
:1004A4009400FCE4FB7A01F9F812060EAE02AF03E5
:0704B4008E0C8F0DD28C228B
:1006520012027374AD2FF58274063EF583E493F5AE
:05066200807F017E0015
:10066700EF1FAC0670011E4C601AE4F516F517C3B0
:10067700E5179478E516940050E60517E51770EF2F
:05068700051680EB22C6
:1005BA00D2A300D2A2C2A3D2A0C2A200D2A200D2C7
:1005CA00A0C2A200D2A200EE4F24FF92A0C2A200B3
:1005DA00D2A200D2A0E4F516F517C2A20030A003F9
:1005EA00430501D2A2007F01ED7801088002C333DE
:1005FA00D8FCFD0517E51770020516640845167044
:03060A00D9AF0560
:01060D0022CA
:1004BB00AB07AA06AD03AC02E41201B97B007AE0EC
:1004CB0079AB784512000EE4FBFA797F7843120181
:1004DB00171201F2AA06AB0775B0FE7C037DE8AFDD
:1004EB0003AE021206527580FF75B0FD7C037DE8EA
:1004FB00AF03AE021202737E007F64CFCDCFCECCA2
:10050B00CE12027374B72FF582740612065C7580D7
:10051B00FF75B0FB7C007D64AF03AE021202737EED
:10052B00007F0ACFCDCFCECCCE1206527580FF7591
:10053B00B0F7AE02AF037C007D0A12027374AD2DCF
:0C054B00F58274063C12065D7580FF22EC
:10055700758901D2AFD2A97D287C007F461203A4FA
:1005670075B0FF7580FFD2A4E4FFFE1205BA8E12A4
:100577008F13E4F51AF51BC3E51B94A0E51A940F36
:1005870040097D147C00E4FF1203A4E4F518F51973
:10059700D3E5199414E518940050CDAF13AE121299
:1005A70004BB7F057E001206670519E51970E10592
:0305B7001880DDCC
:03000B0002068C5E
:10068C00C0E0E50F600D851D8C850B8AD2A1750F1E
:10069C0000800B85098C850D8AC2A1750F01D0E0F5
:0106AC00321B
:10000E00EC4D6011E8497017ED33EC3304600DE4EC
:10001E00FCFFFEFD22E933E8330470F802025E12A3
:10002E00022958046009E4CC2481500628500902A4
:10003E000268284003020265C0E0EB4A7044B980B2
:10004E0006D0E0FB020254EF4E701CBD8008EBFFA1
:10005E00EAFEE9FD80EBE98DF0A4FEE5F00200F783
:10006E00E9CDF9EAFEEBFFEF89F0A4FCE5F0CE89CD
:10007E00F0A42EFFE435F0CD89F0A42DFEE435F08A
:10008E008067EF4E7005BD80D780C3EF8BF0A4ACB8
:10009E00F0EE8BF0A42CFCE435F0F8EF8AF0A42CF3
:1000AE00E5F038FCE433CB8DF0A42CFCE5F03BF806
:1000BE00EE8AF0A42CFCE5F038F8E433CF89F0A4F6
:1000CE002CFCE5F038CF3400CE89F0A42FFFE5F0FC
:1000DE003EFEE433C98DF0A42EFEE5F039CD8AF054
:1000EE00A42FFFE5F03EFEE43DFD33D0E0FB5007CC
:1000FE000BBB000F020268EC2CFCEF33FFEE33FE5D
:06010E00ED33FD0202408A
:10011400020268EC5D046005E85904700302025EA3
:10012400120229580460F6EC4860F2EC7004FDFEFB
:10013400FF22C860DB2481C85009C39860025006BE
:100144000202659850CAF582E9294B4A7005AB82D0
:1001540002025475F0007C1A7880C3EF9BEE9AED8E
:1001640099400DC3EF9BFFEE9AFEED99FDE842F036
:10017400DC23ACF0D0E0FFD0E0FED0E0FDAB822089
:10018400E7101BEB60BAEC2CFCEF33FFEE33FEED13
:1001940033FD020240E803F830E705C0F075F000D3
:1001A400EF2FFFEE33FEED33FD40B830E7C280AAF7
:1001B40075F020800E75F010800575F0087D007EC6
:1001C400007F003392D530D5031202C8EC334010BF
:1001D400EF33FFEE33FEED33FDEC33FCD5F0ED22CF
:0E01E400E5F0247EA2D513CC92E7CDCEFF220B
:1001F200EDD2E7CD33EC3392D524814006E4FFFE05
:10020200FDFC22FCE4CFCECDCC24E0501174FF8063
:10021200EDC3CC13CCCD13CDCE13CECF13CF047000
:07022200F030D5DE0202C836
:10022900E9D2E7C933E833F892D5EDD2E7CD33EC1B
:0702390033FC5002B2D52294
:10024000EC30E7100FBF000C0EBE00080DBD00041F
:100250000BEB6014A2D5EB13FCED92E7FD2274FFCB
:10026000FCFDFEFF22E480F8A2D574FF13FC7D8024
:03027000E480EF38
:10027300BC000BBE0029EF8DF084FFADF022E4CC6F
:10028300F875F008EF2FFFEE33FEEC33FCEE9DEC38
:10029300984005FCEE9DFE0FD5F0E9E4CEFD22ED7E
:1002A300F8F5F0EE8420D21CFEADF075F008EF2FC8
:1002B300FFED33FD4007985006D5F0F222C398FDB9
:0502C3000FD5F0EA2256
:10060E00C2D5E830E70FB2D5E4C39BFBE49AFAE417
:10061E0099F9E498F8EC30E717B2D51206441203B4
:10062E0012E4C39BFBE49AFAE499F9E498F8800388
:10063E0012031230D50DE4C39FFFE49EFEE49DFD30
:04064E00E49CFC220A
:0E02C800C3E49FFFE49EFEE49DFDE49CFC2247
:1002D60075F008758200EF2FFFEE33FECD33CDCCDF
:1002E60033CCC58233C5829BED9AEC99E582984062
:1002F6000CF582EE9BFEED9AFDEC99FC0FD5F0D63F
:10030600E4CEFBE4CDFAE4CCF9A88222B800C1B968
:100316000059BA002DEC8BF084CFCECDFCE5F0CBA6
:10032600F97818EF2FFFEE33FEED33FDEC33FCEBDF
:1003360033FB10D703994004EB99FB0FD8E5E4F99A
:10034600FA227818EF2FFFEE33FEED33FDEC33FC87
:10035600C933C910D7059BE99A4007EC9BFCE99A7B
:10036600F90FD8E0E4C9FAE4CCFB2275F010EF2FC0
:10037600FFEE33FEED33FDCC33CCC833C810D707C0
:100386009BEC9AE899400AED9BFDEC9AFCE899F8FB
:0E0396000FD5F0DAE4CDFBE4CCFAE4C8F9228E
:00000001FF
